:020000040800F2
:10000000008000201905000869050008313000084B
:10001000690500086905000869050008000000007E
:10002000000000000000000000000000690500085A
:10003000690500080000000069050008A5300008F7
:1000400069050008690500086905000869050008D8
:1000500069050008690500086905000869050008C8
:1000600069050008690500086905000869050008B8
:1000700069050008690500086905000869050008A8
:100080006905000800000000452F00086905000808
:1000900069050008152F0008212F0008F13000081D
:1000A000692F0008512F000869050008690500083C
:1000B0002D2F0008392F0008A52F0008690500081A
:1000C0006905000869050008690500086905000858
:1000D0006905000869050008C52F000869050008C2
:1000E000D93000086905000869050008690500089D
:1000F000690500086905000869050008000000009E
:100100000000000069050008000000006905000803
:10011000690500080000000069050008690500087D
:1001200069050008690500086905000869050008F7
:1001300069050008000000000000000069050008D3
:1001400069050008690500080000000000000000C3
:10015000000000000000000000000000000000009F
:100160000000000000000000000000006905000819
:100170006905000800000000000000000000000009
:1001800000000000690500080000000000000000F9
:10019000000000000000000000000000000000005F
:1001A0000000000000000000690500086905000863
:1001B00069050008690500086905000800000000DD
:1001C00000000000690500080000000000000000B9
:0801D00069050008690500083B
:1001D80010B5054C237833B9044B13B10448AFF379
:1001E80000800123237010BD2406002000000000B9
:1001F800D89A000808B5034B1BB103490348AFF36D
:10020800008008BD0000000028060020D89A0008D9
:1002180053B94AB9002908BF00281CBF4FF0FF3165
:100228004FF0FF3000F072B9ADF1080C6DE904CE63
:1002380000F006F8DDF804E0DDE9022304B07047B9
:100248002DE9F047089E04468846002B4BD18A4288
:10025800154667D9B2FA82F24AB1C2F1200701FA0B
:1002680002F320FA07F7954047EA030894404FEA5B
:10027800154E230CB8FBFEF71FFA85FC0EFB1788FA
:1002880043EA084307FB0CF1994209D9EB1807F137
:10029800FF3080F01B81994240F21881023F2B44C5
:1002A8005B1AA4B2B3FBFEF00EFB103344EA03441E
:1002B80000FB0CFCA44509D92C1900F1FF3380F090
:1002C8000781A44540F2048102382C4440EA0740E3
:1002D800A4EB0C0400271EB1D4400023C6E9004358
:1002E8003946BDE8F0878B4209D9002E00F0EB8033
:1002F8000027C6E9000138463946BDE8F087B3FA59
:1003080083F7002F47D18B4202D3824200F2FA8052
:10031800841A61EB030301209846002EE0D0C6E959
:100328000048DDE702B9FFDEB2FA82F2002A40F0A7
:100338008F80491B4FEA154E1FFA85F80127B1FB3C
:10034800FEFC230C0EFB1C1143EA014308FB0CF1D5
:10035800994207D9EB180CF1FF3002D2994200F20A
:10036800CD808446591AA3B2B1FBFEF00EFB1014DF
:1003780043EA044408FB00F8A04507D92C1900F10A
:10038800FF3302D2A04500F2B6801846A4EB080459
:1003980040EA0C409FE7C7F1200CBB4022FA0CFE54
:1003A8004EEA030E01FA07F420FA0CF521FA0CF3D1
:1003B8004FEA1E482543B3FBF8F92C0C08FB193308
:1003C8001FFA8EFA44EA034309FB0AF49C4202FA34
:1003D80007F200FA07F10BD91EEB030309F1FF300E
:1003E80080F087809C4240F28480A9F1020973441E
:1003F8001B1BADB2B3FBF8F008FB103345EA03440E
:1004080000FB0AFAA24508D91EEB040400F1FF33E9
:100418006BD2A24569D90238744440EA0940A0FB6E
:100428000289A4EB0A044C45C2464B4654D351D02A
:10043800002E69D0B1EB0A0564EB030404FA0CFC46
:10044800FD40FC404CEA0505C6E90054002747E793
:10045800C2F1200320FA03F7954001FA02F021FACD
:1004680003F34FEA154E3843010CB3FBFEF71FFAAE
:1004780085F80EFB173341EA034107FB08F38B426B
:1004880004FA02F407D9691807F1FF3C2FD28B420E
:100498002DD9023F2944CB1A81B2B3FBFEF00EFBE3
:1004A800103341EA034100FB08F38B4207D969186E
:1004B80000F1FF3C17D28B4215D902382944C91ADA
:1004C80040EA07473BE73746304609E70746E7E68D
:1004D8001846FBE64145ABD2B8EB020A69EB0E02BF
:1004E80001381346A4E76046E9E7184695E76746EA
:1004F800D1E781467CE702382C4447E7ACF1020C8F
:100508002B442FE7384608E73746E9E6704700BF2F
:100518000D4885460D480E490E4A002302E0D4587E
:10052800C4500433C4188C42F9D30B4A0B4C002333
:1005380001E013600432A242FBD303F049FA09F048
:100548009BFA00F05BF8FEE7008000200000002026
:1005580024060020AC9D000824060020C00C0020C2
:10056800FEE7000030B50021A5B00C46382205A8EA
:1005780009F0A6FA2146442213A8CDE90044CDE9A2
:100588000244049409F09CFA204604F06BFE012210
:10059800022303244FF480355521059205A808222B
:1005A80006950C930E93CDE911330D94CDE90F12F6
:1005B80004F0DEFE08B172B6FEE703460F22684675
:1005C8000421CDE90143CDE90333009205F022F976
:1005D800034608B172B6FEE749F202044FF0007113
:1005E8004FF0805213A8159313941F91229205F08F
:1005F800E1FA08B172B6FEE725B030BD2DE98048B2
:100608004FF00008ABB003F015FAFFF7ABFFCDE9E8
:100618001A88CDE91C88AB4BCDF87880DA6CAA48EB
:10062800AA4C42F00402DA64DA6C02F00402039283
:10063800039ADA6C42F02002DA64DA6C02F02002E3
:100648000492049ADA6C42F00102DA64DA6C02F07D
:1006580001020592059ADA6C42F00202DA64DB6C58
:1006680003F002034246069344F240010125069B2B
:1006780004F064FD44F240031AA99348CDF874804D
:10068800CDE91A351C9504F07DFC914B8E48CDF8C8
:1006980070804FF480621AA9CDE91A2304F072FC25
:1006A8008C4B8D48CDF870804FF480721AA9CDE933
:1006B8001A2304F067FC41463C221AA8CDE90D88AC
:1006C800CDF83C8009F0FCF9414612A8202209F037
:1006D800F7F94FF4002B4FF0A0434FF4004A0426DB
:1006E80002272046C4F80880C4E9048584F81C80E1
:1006F80084F81D8084F82480C4E90B8884F8388045
:10070800C4F83C8084F84080C4E9003BC4F80CA0DD
:10071800A661276203F0B4F908B172B6FEE7034692
:100728000DA920460D9303F0BDFF034608B172B62C
:10073800FEE701228DF88C308DF88D308DF88E30E3
:100748008DF898307F23CDE91C23DFF8C0812297EC
:1007580004220023CDE91E234FF0090984228023B7
:100768001AA92046CDE91A89CDE9242303F0CAFC49
:1007780008B172B6FEE7594B1A931AA940F20F1343
:1007880020461B9303F0BEFC08B172B6FEE754493D
:1007980012910622CDE916607F2312A920461496ED
:1007A8001392159303F07AFA08B172B6FEE74D4B2F
:1007B800129320460C2312A9139303F06FFA08B181
:1007C80072B6FEE7484C019001463C221AA809F08F
:1007D80077F9019B454A23772046C4E9023AC4E9E0
:1007E8000435637784F8243084F83830E36384F878
:1007F8004030C4F804B0A6612562226003F040F9D5
:10080800034608B172B6FEE701257F26CDE91C56DE
:1008180004250026CDE91E561AA9842580262046DF
:10082800CDE91A8922978DF88C308DF88D308DF8A6
:100838008E30CDE924568DF8983003F063FC08B16A
:1008480072B6FEE72A4B1A9340F20F1220461AA9F5
:100858001B9203F057FC08B172B6FEE7254B2649F8
:100868005860C3E90300C3E905004FF44002184685
:1008780019609A6003F080FF08B172B6FEE71F4B5B
:100888001F4A1A60184600224FF440045A60C3E910
:100898000322C3E905229C6003F06EFF024608B1FB
:1008A80072B6FEE7174B18491960C3E901041846E8
:1008B800C3E90322C3E9052203F05EFF40B372B621
:1008C800FEE700BF0010024000080048780800203A
:1008D80000002110000011100004004800106032D0
:1008E800020030042000F01400070020000100502E
:1008F80000008CCBA807002000020140C00900209E
:1009080004020140540800200C0201400800900C29
:100918009548964B036003F0D3FF024608B172B6C0
:10092800FEE7934B9349586040264FF400354FF447
:10093800404418461A611A759A61DA6219609E6015
:10094800C3E9095404F00AFC08B172B6FEE78A4B01
:100958008A4A1861C3E9010618759861D862184671
:100968001A60C3E9095404F0F9FB024608B172B6EB
:10097800FEE7834B83491A61C3E90106184601263D
:10098800C3E90A429A615D6219601E7504F0E6FBCC
:10099800044608B172B6FEE77B4D0D90014634223D
:1009A8001AA8CDE90E44CDE9104407940A94CDE97C
:1009B8001244CDE91444CDE916441894CDE908440D
:1009C800CDE90B44714F09F07BF8202140F6113234
:1009D8004FF4807328466C606E61AC612F60C5E986
:1009E80002122B6105F032FA08B172B6FEE728460A
:1009F80005F01EFB08B172B6FEE7102306220DA90A
:100A080028460E930D9205F03BFF034608B172B6D7
:100A1800FEE7702207A92846CDE90833079206F0B9
:100A2800B3F808B172B6FEE7022401260023214676
:100A38000AAA55480C93CDE90A4606F047F908B1C9
:100A480072B6FEE704250AAA21464F480A9506F021
:100A58003DF908B172B6FEE710230AAA21464A48B2
:100A68000A9306F033F908B172B6FEE7602302462E
:100A7800CDE91300CDE91500CDE9170012A94248C8
:100A8800129305F045FC034608B172B6FEE72A4604
:100A980012A93D48139305F03BFC034608B172B612
:100AA800FEE7082212A93848139305F031FC08B173
:100AB80072B6FEE77023139015900C2212A93248E3
:100AC800129305F025FC08B172B6FEE74FF40061F9
:100AD8004FF480624FF480731E90CDE92000CDE979
:100AE80025001A9144204FF400511B921C934FF09B
:100AF80080724FF000731D901F9103271AA9224896
:100B08002292CDE9233706F093F8044608B172B66D
:100B1800FEE71F4D1C4802F06BF940F28F131D4A87
:100B2800EB6028460C231AA91E9322931B94CDE947
:100B3800124414941A971C962096C5E901442C6116
:100B4800AC612A601D941F94219405F00FFB0346A5
:100B580008B172B6FEE7284612A91293149306F05C
:100B680013F8C8B172B6FEE7E8080020000C02408E
:100B78001808002000030140780600200403014003
:100B88006C0700200803014074090020002C014074
:100B9800B406002000080040894C8A4B23604FF4BB
:100BA800E1330C226360204600236261C4E902330A
:100BB8002361C4E90633C4E90833A36206F03EF9A9
:100BC800014608B172B6FEE7204606F07BFB0146F7
:100BD80008B172B6FEE7204606F0C6FB08B172B649
:100BE800FEE7204606F050FB044608B172B6FEE761
:100BF80001F0A8FB744B7549196014200E220221DC
:100C08005861DA61184601225C60C3E902441C7429
:100C18005C749C74C3E90D44DC6319629A61C3E98E
:100C28000922C3E90B2203F0DBFE08B172B6FEE726
:100C3800674C1A904FF0804242F20F73CDE91B00C7
:100C48001D90CDE912001490A0602061A06140F2CF
:100C5800A36620462260E360666005F0F7F808B1F5
:100C680072B6FEE74FF480551AA920461A9505F08A
:100C780041FD034608B172B6FEE7204612A9129359
:100C8800149305F081FF08B172B6FEE7514C524A41
:100C98001490CDE91A00CDE91C00CDE9120040F20C
:100CA800E733A0602061A061204666602260E360AF
:100CB80005F0CCF808B172B6FEE71AA920461A95D5
:100CC80005F018FD08B172B6FEE7002312A94148E5
:100CD8001293149305F058FF044608B172B6FEE764
:100CE80001220421182003F017FE182003F04AFE01
:100CF80022462146192003F00FFE192003F042FE78
:100D080022460221122003F007FE122003F03AFEC9
:100D1800224603211E2003F0FFFD1E2003F032FEB1
:100D280022460321172003F0F7FD172003F02AFEBF
:100D380001220321262003F0EFFD262003F022FEE6
:100D480022460321282003F0E7FD282003F01AFE9D
:100D580022460A21152003F0DFFD152003F012FEBC
:100D680022460A21162003F0D7FD162003F00AFEBA
:100D780001224FF48041194804F0E0F9224640214D
:100D8800164804F0DBF9104803F01CFF024608B1CE
:100D980072B6FEE701210C4803F0A4FF08B172B651
:100DA800FEE74FF4FA710E4806F0D0FD64210C48B6
:100DB80006F0CEFD4FF4FA71094806F0D9FDFEE7BA
:100DC800300A002000440040100900200064004060
:100DD800E4090020CC070020000400400008004877
:100DE8004804002008B500F0CBF80548012240214E
:100DF80004F0A4F90348BDE8084005F0C5B800BFF1
:100E080000080048E409002008B500F0BFF80548CC
:100E18000022402104F092F90348BDE8084005F09B
:100E2800EDB800BF00080048E409002008B50D48E7
:100E380005F0E4F800F0BCF80A2809D000F0B8F88A
:100E48000B2805D0084B0021012219705A7008BDE3
:100E580000F0A8F80028F5D1034B03221A7072B6E7
:100E6800FEE700BFCC07002040060020314B026897
:100E78001B689A4200D07047CB07FCD510B52DED02
:100E8800028B8EB002AB04AA402103F0B3FE0446E5
:100E980008B172B6FEE7049B212B43D019D9222B47
:100EA8000BD040F27772934203D1FFF7ADFF224B8C
:100EB8005C700EB0BDEC028B10BD9DF80830B3B36A
:100EC8001D4C6378002BF4D0FFF78CFF0123A3702F
:100ED800EFE7202BEDD1029B9FED187A019307EEE7
:100EE800903AF4EEC77AF1EE10FA06DC9FED147A28
:100EF800F4EEC77AF1EE10FA01D58DED017A9DED89
:100F0800018A104B83ED008A00F052F8062805D1BB
:100F1800B0EE480ADFED0C0A00F03EF8064B01225D
:100F28009A70C6E7FFF770FFFFF780FFC1E7FFF78A
:100F38006BFFBEE71009002040060020DB0F494187
:100F4800DB0F49C1BC0A002000000000084B984292
:100F580003D0084B984206D07047074B00229A707E
:100F6800044B9842F8D14021044804F0EDB800BF82
:100F7800E4090020CC0700204006002000080048B3
:100F8800014B186800F086B8B00B0020014B1868B8
:100F980000F08AB8B00B0020014B186800F040B888
:100FA800B00B0020014B186800F082B8B00B00208D
:100FB800014B186800F0BEB8B00B002010B4019CBB
:100FC80001600021C460C0E901230174C0F8121057
:100FD800418301775DF8044B704700BF01234182CC
:100FE8004283037403774377704700BF30B400230C
:100FF800022501240574047781824283437730BC3B
:10100800704700BF10B4012283B003240023C0F846
:10101800161004740277437703B05DF8044B7047E9
:1010280010B504462DED028BD0E90103002282B0F1
:1010380083F82420B0EE608AF0EE408A07F07AFF49
:1010480007F01EFFB5EEC08AF1EE10FA019014DD2C
:1010580007EE900A9FED0E7AE068F8EEE77AB0EEB8
:10106800481A87EE870A78EEC00A08F0E9F80023E4
:10107800637702B0BDEC028B10BDB0EE680AE06881
:1010880008F04CF90023637702B0BDEC028B10BD69
:1010980083F9224610B503210446006808F024F8B5
:1010A80008B10123237710BD0068072108F01CB898
:1010B800006808F08FB800BF0068012108F014B874
:1010C80010B1037F012B00D07047017C022910B5B5
:1010D80004461FD0032904D001290BD0032323770A
:1010E80010BD8268D0F81610116182F824300223EE
:1010F800237710BDD0E90103002283F8242007F0EC
:1011080033FF628BB4F91210606807F031FF0028D2
:10111800E4D0ECE7D0E90103002183F8241007F0BC
:1011280023FF628BB4F91410606807F021FF0028D0
:10113800D4D0DCE7006808F04BB800BF407F7047A8
:10114800037C012B0CBFB0F912000020704700BFD0
:10115800406807F057BF00BF08B5406807F0EAFECF
:10116800BDE8084007F08EBE406807F0EDBE00BF3E
:101178008368186883B282B063F30F0002B07047C7
:101188008368586883B282B063F30F0002B0704777
:101198008368D86883B282B063F30F0002B07047E7
:1011A8008368186983B282B063F30F0002B0704796
:1011B8008368D3F8160083B282B063F30F0002B0DD
:1011C800704700BF8368D3F81A0083B282B063F314
:1011D8000F0002B0704700BF8368B3F91E00704764
:1011E800836859829982704710B5D0E9010407F0E5
:1011F80047FFC0F30F432082638210BD44F6E61117
:1012080002B2C0F30F4312FB01F013FB01F340429B
:10121800A0EB4300C013B0F5004F84B004DA10F51A
:10122800004F0CDA074B01E047F6FF7392B200203B
:101238009BB262F30F0063F31F4004B0704703B220
:10124800F4D1EFE70180FFFF094B0A4A1A6000F169
:10125800FF4000F5FE0058609B6800209AB262F3D8
:101268000F001B0C82B063F31F4002B0704700BF31
:10127800000C02404000600030B585B004B2019017
:1012880005140846FFF7E0FF01B204FB01F3001460
:1012980005FB1033DB13B3F5004F04DA13F5004FE9
:1012A8001EDA114A01E047F6FF7201FB05F104FB63
:1012B8000010C013B0F5004F04DA10F5004F0CDA37
:1012C800094B01E047F6FF7392B200209BB262F32C
:1012D8000F0063F31F4005B030BD03B2F4D1EFE750
:1012E8001AB2E2D1DDE700BF0180FFFF30B585B05B
:1012F80004B2051401900846FFF7A6FF031405FB86
:1013080003F200B204FB002200FB05F004FB130308
:10131800C2F3CF320020C3F3CF3362F30F0063F37D
:101328001F4005B030BD00BFF8B500EBC003184A38
:1013380000EB43035B0000249F1803F10C069C504C
:10134800054603F1160126237C6003FB0523B450F0
:10135800B71810487C608E18DC8350F825008C5034
:10136800214674601C8406F0FDFA0B4B214653F8A5
:10137800250006F0F7FA094B53F8250007F0DCFDC5
:10138800074B53F82500BDE8F84006F0F9BC00BF4C
:10139800F00A0020E00A0020A80B0020AC0B002077
:1013A800D40A00202DE9F04F89B06F4C03906F48A4
:1013B800DFF81CB2049107F077FE6D496D4B6E485B
:1013C8006E4A20600024DFF80CA20C701A6007F047
:1013D8000DF806F06DFB584606F0B0FA684D694FF7
:1013E800694BDFF8F481C3F800B05046C5F80080B7
:1013F80006F094F829686548DFF8E091644EDFF854
:10140800E0B153463A4606F039F8624B62485F4A03
:10141800C9F800001A6006F091FA604A6048D9F8E5
:10142800001010605346424607F0E6FE564B286807
:101438001968DFF8B081DFF8B091524607F064FD13
:10144800384608F0ABFA574F304606F077FA564858
:1014580006F074FA3E60554E554B534F3760554F62
:101468004E4E3B60184607F0B1FC534B3A68534860
:10147800C3F81021CBF80030C3F80C8106F018FA35
:101488004F4B504A4D48C9F80000184613600127D1
:1014980007F0EAFC2046FFF747FF88F82470286821
:1014A80007F0EEFD0346C0F30F42A8F81030A8F885
:1014B8001220286807F0E4FDDFF830C13368424E97
:1014C8002A682A490093C0F30F404346C6F800C073
:1014D800A8F814006046FFF771FD2868D6F8008068
:1014E80007F0C4FD224601464046FFF777FD264A2D
:1014F8003068D2F800C02B4A029016682B4A334B4A
:101508001068194ADBF8008011682A68D9F8005079
:101518000595284DD5F800E0204DD5F80090039D9D
:10152800AB46029DCBF800505A62059A1961C3E98F
:101538000B2E0E4A9A62C3E900C69860C3F83C8035
:10154800C3F84890DC60C3E9054AC3E90744084981
:10155800C3E90D44049AC3E91044C3E91344136072
:101568000F7009B0BDE8F08FD40A0020980B002056
:101578005C060020700B0020280300203C0100209E
:10158800AC0B0020F0020020D80A002058020020EE
:10159800A0040020DC0A0020480400206C0B002076
:1015A800D8030020E00A002074040020A80B0020C3
:1015B80008020020740B0020FC04002030020020E8
:1015C800F0010020A00B0020E40A0020180B0020E6
:1015D800CC04002074020020A4030020E80A0020A4
:1015E800A40B0020F00A0020D00A0020780B00206D
:1015F800704700BF084B10B5262404FB003494F84C
:10160800243003B110BD054B53F8200007F0FEFC51
:10161800E083208210BD00BFF00A0020AC0B002040
:10162800014B5880704700BF5C060020034B588868
:1016380080B2B0FA80F04009704700BF5C06002015
:10164800014B9880704700BF5C060020034B9888C8
:1016580080B2B0FA80F04009704700BF5C060020F5
:1016680010B582B002A90023904C21F8023D9048A1
:1016780005F0C4FF206806F0E5F98E4807F0A8FDDC
:10168800122818D8DFE810F02A0038004400530068
:1016980062006B007E008A009D001300170017008F
:1016A8001700A700B600C300D700E6001900002104
:1016B800804807F019FD02B010BD7D4805F06CFFA9
:1016C80004217C4807F010FD0028F4D00020FFF723
:1016D8002BFE794B186806F069FDECE7774805F0B2
:1016E8001BFF0028E7D00021744805F013FF0321F1
:1016F800704807F0F9FCDEE76F4B186806F02EFD1E
:101708001420FFF78DFF0D216A4807F0EDFCD2E7A2
:101718006A4805F0E5FE0446002840F0B480684BAE
:10172800186807F073FC674B58821C82C3E763484C
:1017380005F0EEFE002840F09A8001215F4805F090
:10174800E9FE01215B4807F0CFFCB4E75E4B18685F
:1017580007F0F0FE0521574807F0C6FCABE700206C
:10176800FFF746FF0020FFF745FF0621514807F025
:10177800BBFC534B186807F08FFC544B1868FFF7F5
:101788009FFC98E7504B186807F00CFE4F4B186801
:10179800FFF796FC0020FFF72DFF8CE7464B1868F3
:1017A80006F04CFD0020FFF7BFFD206806F040F86A
:1017B8004FF44870FFF744FF08213E4807F094FCB7
:1017C80079E7FFF743FF00283FF475AF092139484F
:1017D80007F08AFC6FE7FFF729FF00283FF46BAF9B
:1017E800354B0021186806F0CDFA0E21314807F074
:1017F8007BFC60E7304B0121186806F0C3FA00282B
:101808003FF459AF0F212B4807F06EFC53E72C4AE1
:101818002C4B10682E49012283F8242007F088FBFE
:10182800264805F035FE0221224807F05DFC002815
:101838003FF441AF4AE7FFF7F9FE00283FF43BAF1A
:101848001D4B0021186806F09DFA1121194807F070
:101858004BFC30E7184B0121186806F093FA002872
:101868003FF429AF1221134807F03EFC23E7124B3F
:10187800186806F073FC1420FFF7D2FE10210D48FB
:1018880007F032FC17E70C4B0D4C186806F0D6FC35
:101898002068012107F068FB2068054907F048FB2C
:1018A8000721044807F020FC05E700BFA40B00202F
:1018B80074020020980B0020D40A0020580200204F
:1018C800AC0B0020F00A00206C0B0020E40A00207A
:1018D800F002002038B5104C2578012D00D038BD15
:1018E800E3889BB2A3B1E388013B9BB2E3806388A2
:1018F8009BB243B9A3889BB2002BF0D0A388013BCD
:101908009BB2A38038BD6388013B9BB26380F1E73B
:10191800FFF7A6FEE580EAE75C0600202DE9F04126
:101928003348344F344C86B005F048FE334B1868C2
:1019380007F000FB054607F09FFA03A9064638683A
:1019480006F010F900F0E0FF00F09CFF0398FFF7A5
:1019580055FC31460490FFF78FFC294BB4F9101061
:10196800019000B2091A186806F008F8BDF90620B7
:10197800244BB4F912108046891A186805F0FEFF46
:10198800214BADF808801B68ADF80A00029918468B
:1019980005F042FD034628460FFA83F81D1402930A
:1019A80007F074FA31460298FFF7A0FC0346014697
:1019B8003868059306F0D8F8014603982060049823
:1019C80060600198E06001290598A4F816802583D5
:1019D8002684C4F81A0003D0002006B0BDE8F081C0
:1019E80000220A4807F066FB002006B0BDE8F08137
:1019F80074020020D40A0020F00A0020AC0B00205A
:101A0800E00A0020A80B0020700B0020980B002093
:101A1800F8B5234B234F054653F8200005F05AFF2D
:101A2800044657F8250006F0D7F904F00E040443DD
:101A3800A4B26DB31C4E05EB450306EB4306E24327
:101A480092B22146304607F035FB304607F0C0FB1E
:101A58000A2808D00B2805D157F82500BDE8F8401A
:101A680006F08EB9F8BD114B53F8250010B10021CE
:101A780005F050FD57F8250006F082F92846FFF7D3
:101A880053FC0B4B53F82500BDE8F84005F0D0BED9
:101A9800084B186807F0B2F900F00E000443C9E7D4
:101AA800D00A0020D40A0020980B0020DC0A00206D
:101AB800A40B0020740B002008B5064B1B78012BE3
:101AC80000D008BD0020FFF7A3FFBDE8084000F0E4
:101AD800EFBD00BF5C06002008B5064B1B7803B9B4
:101AE80008BDFFF7F7FEFFF7E7FFBDE8084001F084
:101AF80049BB00BF5C06002008B5054B186806F016
:101B08009DFB002280210348BDE8084007F0D2BAB7
:101B1800D40A0020980B00202DE9F041624A634C5A
:101B2800D4614FF0040C94B0C2F81CC0D461D369DE
:101B380013935F4D139BD5614FF0020EC2F81CE062
:101B4800D561D36912935B49129BD1614FF48076BA
:101B5800D661D161D36911934FF480404FF4A0331B
:101B6800119FD361D061D361D06910904FF0904339
:101B78004FF001100127DDF84080D861DF61D8619E
:101B8800D3F81C80CDF83C80DDF83C80D061D7616B
:101B9800D061D0690E900E9F4748D8618027DF61D9
:101BA800D861D3F81C80CDF83480DDF83480DD614D
:101BB800C3F81CE0DD61DD690C95DDF830E03F4DD0
:101BC800DD614FF0080EC3F81CE0DD61DD690B959F
:101BD8000B9DDC61C3F81CC0DC61DC690A940A9DBA
:101BE800374CDC614025DD61DC61D3F81CC0CDF8E1
:101BF80024C0DDF824E0DFF8D0C0C3F81CC04FF0E3
:101C0800200EC3F81CE0C3F81CC0D3F81CC0CDF8E4
:101C180020C0DDF820C0D461D561D461D4690794AF
:101C2800079CD061D761D061D06906900698D961C8
:101C3800DE61D961D96905914FF400704FF48131A3
:101C4800059CD961D861D961D96904914FF4806044
:101C58004FF48231049CD961D861D961D969039163
:101C68004FF480504FF48831039CD961D861D96111
:101C7800DB6902934FF400414FF4C0330298D361FB
:101C8800D161D361D2690F4B01924FF400514FF4E7
:101C980090320198DA61D961DA61DB690093009BBF
:101CA80014B0BDE8F08100BF000400480400010042
:101CB800020001000001010080000100080001008D
:101CC800400001000008004820000100F0B50C4663
:101CD8008DB00021164662091F468DF80910054689
:101CE80022D1122C14D8DFE814F016004C00E800BA
:101CF800DE00130013007A01A701BC01EF011102F5
:101D08002202390256021300130013001300660260
:101D180001238DF80E30D5E9060401230DF10E02DA
:101D2800FF21A0470DB0F0BD013A01F073FAC8B128
:101D380004F01F04122C00F2BB82DFE814F0C20189
:101D48002200BE00B400B902B90250017D0192011F
:101D5800C501E701F8010F022C02B902B902B90264
:101D6800B9023C020B239DF809008DF80E300028BB
:101D7800D1D000231A46D5E90604F021A0470DB0BA
:101D8800F0BD317805238DF80E30882900F296824F
:101D9800DFE811F08602940294027F029402750231
:101DA8007502750275027502750275027502750273
:101DB8007502750265026502940294027502750245
:101DC8007502750275029402940294024E014E0146
:101DD800940294029402940294029402940294024B
:101DE800940294029402940294029402940294023B
:101DF800940294029402940294029402940294022B
:101E0800940294029402940294029402940294021A
:101E18009402940294027502940294029402940229
:101E28006502650265029402940294029402940287
:101E38009402750294029402940275027502750266
:101E48007502750275027502940265029402940285
:101E58009402940294027502940294027502750227
:101E680094029402940294029402940294029402BA
:101E78009402940294029402940294027F026502EE
:101E88006502650265026502940294029402650285
:101E980065029402940294029402940294029402B9
:101EA800750275027502072331788DF80E302846C1
:101EB80001F0E6FC8DF8090059E7317803238DF825
:101EC8000E30882900F2FD80DFE811F0B701930198
:101ED800B701B7019301A501A501A501A501A501B8
:101EE800A501A501A501A501A501A501A501A501BA
:101EF800A501A501A501A501A501A501A501A501AA
:101F0800A501A501FB00FB009301A501A501A50101
:101F1800B701FB00FB00FB00FB00FB00FB00FB0024
:101F2800FB00FB00FB00FB00FB00FB00FB00FB00D1
:101F3800FB00FB00FB00FB00FB00FB00FB00FB00C1
:101F4800FB00FB00FB00FB00FB00FB00FB00A50106
:101F5800FB00FB00FB00FB00930193019301A5012B
:101F6800A501A501A501B7019301A501A501A50139
:101F7800A501A501A501A501A501A501A501A50129
:101F8800B7019301FB00A501A501A501A501A501C4
:101F9800FB00FB00A501A501B701B701930193015F
:101FA800930193019301B701A501A5019301FB00DA
:101FB800A501A501B7019301930193019301930131
:101FC800930193019301930193019301B701FB00DE
:101FD800B701930193019301A501A501A50104ACE3
:101FE80000212046202207F06BFDD5F8A8600DF1EE
:101FF8001200711E002305E001331D2B00F8012F8C
:1020080000F0628111F8012F092AF5D15A1DD91D56
:102018000933B25C8DF81020725C8DF81120F35CE6
:102028008DF8123022462023D5E90604F021A04776
:1020380001238DF809309CE6777833787079B47885
:102048003279F17803EB072303EB044302EB002218
:1020580003EB016192B2284601F04EFC8DF80900AD
:1020680085E60DF10E03317800930DF10A0203ABFA
:10207800284601F067FCBDF90C30BDF80A00BDF92F
:102088000E108DF8141003EB43035B0000221C12A2
:1020980063F3070264F30F221C1464F317421B1640
:1020A80063F31F620912030A04928DF815108DF864
:1020B80016008DF81730D5E90604082304AAF02184
:1020C800A0479DF8090052E6B1787378F278347920
:1020D8007079377A03EB012303EB02437C4AB17929
:1020E80003EB046382FB0342F47900EB0120A2EBCB
:1020F800E37300B204EB0722317800901BB292B26E
:10210800284601F03BFC8DF8090030E6F07873783A
:10211800B278317802EB002201EB032112B209B246
:10212800284601F045FC01238DF8093021E6694C69
:1021380004960C23214604A88DF814708DF80E30EF
:1021480001F044FC8DF8090000283FF4E4ADD5E91E
:10215800060623792268F021B047E3E5D5F8A820E0
:1021680004AC013A23460CAE04E003F8011B9E427E
:102178003FF458AF12F8011F181BC0B20029F4D160
:102188001F283FF64FAFC0F11F02D2B201322044E0
:1021980007F096FC46E7707932797378317802EB6C
:1021A800002201EB032192B209B2284601F0B6FBE6
:1021B8008DF80900DBE57079717832793378B77971
:1021C800B47802EB002203EB0123F079F17802EBFB
:1021D800074203EB044302EB006203EB016300EEEA
:1021E800902A00EE103A284601F0A2FB8DF809006B
:1021F800BDE50DF10902284601F0FCF89DF809300B
:102208000490002B3FF487ADD5E90604042304AA03
:10221800F021A04786E50DF10902284601F0EAF809
:102228009DF809300490002B3FF475ADD5E90604FC
:10223800022304AAF021A04774E50DF109022846FB
:1022480001F0D8F89DF809300490002B3FF463ADF5
:10225800D5E90604012304AAF021A04762E5B47871
:102268007378F078327903EB042303EB004303EB34
:102278000262284600F0CEFF8DF8090077E5B278B3
:102288007378284603EB022200F0C4FF8DF809009A
:102298006DE57278284600F0BDFF8DF8090066E507
:1022A80072780021284600F0B5FF8DF809005EE538
:1022B80001239DF809008DF80E3058E502238DF8AA
:1022C8000E309DF8090052E5262324212222A0E69B
:1022D800ABAAAA2A6406002010B5436A044680699E
:1022E8009847802384F8AC30A069236ABDE8104081
:1022F800184700BFF0B583B004461E460A4D099B37
:1023080081611746C4F8A830084600952146089D03
:10231800064B074A05F06EFAC4E90776656220465F
:10232800FFF7DAFF03B0F0BD3D230008D51C000815
:102338004523000808B5FFF7CFFF08BD08B5FFF72C
:10234800CBFF08BD30B583B003F00AFC0B4B0C4D36
:102358000C4CA3FB0030C00902F022FB29462046A2
:10236800FFF720F8FFF7D8FB074B009322462B46D0
:102378000121064800F0C8FE03B030BDD34D6210FD
:10238800B40B0020B00B0020209C00081006002091
:1023980063490A68F0B4002A00F08180047913794F
:1023A8009C421FD04B68002B00F08C801D79A54201
:1023B8004FF0FF027AD08D68002D00F0A2802B79B3
:1023C800A34279D0CB68002B00F096801D79A542F6
:1023D80000F08480032A88BFFF2240F297801046CD
:1023E800F0BC7047126803689342DBD100229C68F6
:1023F8004C4D41F82200002145F83210E50722D45F
:102408005968042421F0040159601C60596820248B
:1024180021F0200159601C60996821F0404121F0A9
:102428003F0141F00041996099680029FCDB196877
:10243800CC0708D43C4C9968214041F001019960CF
:102448001968C907F7D5394E1C6B02EB42014900E0
:1024580075180027775424F00F046A712A711C63D9
:1024680004790121092C4FEA846601FA04F104EB8E
:1024780044053AD846EA05552943CC0D04F004042E
:1024880014338568E058C1F3045107268E408D4007
:1024980020EA06012943E1501046F0BC70474B681A
:1024A800002B35D004791D79A54284D11D680368B5
:1024B800AB4280D101229AE72D6803689D4281D101
:1024C800022294E78D680122002D7FF478AFCB6853
:1024D800E3B104791D79A5427FF47CAF1C680368D9
:1024E8009C427FF477AF032281E741F000713143CA
:1024F8001E3D41EA0551C0E7042A7FF66BAF036829
:10250800F1E7042A8CBF02220022E0E703686EE7A5
:102518008D6815B11A46047951E72A46D7E700BFF6
:10252800F80B0020D40B0020C0FFFF7FBC0B00205D
:10253800F0B4440022185A4B13F81220002A39D15B
:102548001978002978D19979042200297AD0DE7A7D
:10255800864200F297801A7B002A00F096805E7C03
:10256800B04205D39A7C002A40F09380022270E0A2
:102578000222114601EB4105211803EB410106EB4C
:1025880046074E71474E0A7103EB450503EB4707B3
:10259800327868713871211849005D1802EB4202DF
:1025A80003EB420200276F7052780125AA425D545E
:1025B80018BF30703C4A92F87820002A32D13B4A42
:1025C80052F8202015791168092D4FF001024FEAC1
:1025D800856702FA05F205EB450629D942F0007233
:1025E8003A431E3E42EA06520D6B120D02F4F8629F
:1025F80025F4F8652A430A630A6C8A6822F00042C7
:1026080022F03F0242F004028A600A685207FCD5B1
:10261800221803EB4202096C5180224D02215170AD
:1026280052792A70204403EB4003F0BC5888704765
:1026380047EA06563243D7E75E79B04299D399798B
:10264800002984D1197B002989D1997C09BB042AE6
:1026580014D002EB420503EB4505211895F805C097
:10266800104E0CEB4C0703EB410103EB47070A71D3
:1026780081F805C03871687132788CE7094E0246D6
:10268800307088E70122114674E79A7C0AB9012262
:10269800DFE7DE7D86424FF00302DAD969E700BF43
:1026A800BC0B0020B80B002028030020F80B0020EA
:1026B800F0B56C4C2378012B00D0F0BD6A4A6B4B07
:1026C80010784200111813F81110002950D11D7804
:1026D800B5B15E79B04214D20D4605EB4507151821
:1026E80003EB450506EB460C6E7103EB470703EB5E
:1026F8004C0C5F4E2971787131788CF8040026E013
:1027080004219D79002D00F08E80DE7AB042C0F061
:102718009C80197B002940F09B80997C002940F01F
:102728008680012101EB410703EB4707151897F84D
:1027380005E04F4E03EB45050EEB4E0C03EB4C0C3E
:102748002971317885F805E08CF80400787115183E
:102758006D005F1901EB410103EB41014FF0000CE3
:1027680087F801C049780127B9425F5518BF307012
:10277800404991F87810002943D13F4951F8201079
:102788000E790D68092E4FF001014FEA866C01FAA7
:1027980006F106EB46073ED84CEA075739432E6B3D
:1027A800090D01F4F86126F4F86631432963296CB0
:1027B800A96821F0004121F03F0141F00401A9601E
:1027C80029684907FCD50244296C294D03EB4203CB
:1027D80089B22A4A598002265E705B792B70118073
:1027E80002232370264B53F83050002D3FF465AF79
:1027F80003EBC00300265A6826702B46BDE8F0405C
:102808001847024403EB42031C4D5A785988298023
:10281800002AE7D0E4E741F0007141EA0C011E3FCD
:1028280041EA0751BBE71D7B95B99D7C35B1DE7D3B
:10283800B0424FF00301BFF475AF4DE704297FF4B0
:1028480071AF0B4E0146307081E701210D4644E718
:102858005E7CB04204D3997C0029E8D1022161E76B
:10286800022139E7F40B0020B90B0020BC0B002033
:10287800B80B002028030020F80B0020080C0020CB
:10288800D40B0020F0B41D4B1D481A785400A3182F
:1028980010F813305BB31B4B53F82230196804252A
:1028A8000D601D790123092D4FEA856703FA05F3A9
:1028B80005EB45061DD943F000733B431E3E43EA32
:1028C80006530D6B1B0D03F4F86325F4F8652B43D1
:1028D8000B630B6C8B68224423F0004300EB42002F
:1028E80023F03F0343F0040301228B604270F0BCE5
:1028F800704747EA06563343E3E700BFB80B0020AA
:10290800BC0B0020F80B002070B40E4C0E4B207846
:102918004200111803EB41014D78012D06D0024405
:1029280003EB42035B79237070BC7047074D55F881
:1029380020502D682E687607F1D52D6C4D80022524
:102948004D70ECE7B80B0020BC0B0020F80B002002
:102958000E4B00B51A6E42F001021A661A6E83B069
:1029680002F001020092009A9A6D42F080529A6534
:102978009B6D03F0805301930420019B01F0BAFF83
:1029880003B05DF804EB02F0EBBC00BF001002409E
:1029980010B502688AB00023B2F1A04FCDE9053323
:1029A800CDE9073309931FD0314B9A4201D00AB0C1
:1029B80010BD304A13680133012B13604DD02E4BE4
:1029C800DA6C42F00102DA64DB6C03F00103049371
:1029D8004022032305A94FF09040049CCDE905232C
:1029E80002F0D0FA0AB010BD224A13680133012B55
:1029F800136027D0204BDA6C42F00102DA64DA6CFB
:102A080002F001020192019ADA6C42F00202DA64E1
:102A1800DB6C03F0020302930324052305A94FF09E
:102A28009040029ACDE9053402F0ACFA44F2020271
:102A3800002305A911480793CDE9052402F0A2FA5D
:102A48000AB010BD0C4BDA6C42F40052DA64DB6C4D
:102A580003F400530093009BCCE7074BDA6C42F475
:102A68000052DA64DB6C03F400530393039BA6E77C
:102A7800000100506C0600200010024000040048CD
:102A880010B502682C4988B000238A42CDE9033387
:102A9800CDE90533079307D0284B9A4233D0284B0A
:102AA8009A4219D008B010BD03F1804303F50433EE
:102AB80003A9DA6C42F00102DA64DB6C03F001036B
:102AC8000093022203234FF09040009CCDE903239A
:102AD80002F058FA08B010BD03F5863303F5FA730F
:102AE800DA6C184842F00202DA64DB6C03F0020385
:102AF80002930122032303A9029CCDE9032302F0D8
:102B080041FA08B010BD03F5863303F5FE73DA6C9D
:102B180042F00102DA64DB6C03F0010301938022C6
:102B2800032303A94FF09040019CCDE9032302F051
:102B380029FA08B010BD00BF00020140040201409C
:102B48000C0201400004004802680A4B9A4200D077
:102B58007047D3F8482442F00802C3F8482403F524
:102B6800806382B09B6C03F008030193019B02B061
:102B7800704700BF000C024070B50268284B88B04F
:102B880000249A42CDE90344CDE90544079401D0D5
:102B980008B070BD03F5D63302269A6D42F0007274
:102BA8009A659A6D02F000720092009ADA6C42F00F
:102BB8000102DA64DA6C02F001020192019ADA6C1D
:102BC80042F00202DA64DB6C03F002030293092587
:102BD8004FF4006303A94FF09040029A0795CDE99E
:102BE800033602F0CFF94FF4007303A90D4803939D
:102BF80004960795CDE9054402F0C4F9224621461A
:102C0800152001F089FE152001F0BCFE2246214660
:102C1800162001F081FE162001F0B4FE08B070BD48
:102C2800006400400004004810B502682B4988B0D1
:102C380000238A42CDE90333CDE90533079307D052
:102C4800274B9A4232D0274B9A4219D008B010BD70
:102C580003F1804303F5043303A9DA6C42F001025F
:102C6800DA64DB6C03F0010300930E2203234FF0B8
:102C78009040009CCDE9032302F084F908B010BD10
:102C880003F58633F833DA6C174842F00202DA6447
:102C9800DB6C03F0020302930722032303A9029CBF
:102CA800CDE9032302F06EF908B010BD03F58633B1
:102CB800FC33DA6C42F00102DA64DB6C03F00103E6
:102CC8000193E022032303A94FF09040019CCDE932
:102CD800032302F057F908B010BD00BF00030140FC
:102CE80004030140080301400004004800B50368DC
:102CF800224A934285B008D0B3F1804F27D0204AAA
:102D080093420FD005B05DF804FB1E4B1A6E42F4D7
:102D180000621A661B6E03F400630193019B05B001
:102D28005DF804FB174B9A6D42F002029A659B6DA1
:102D3800002203F00203039311461D20039B01F0B8
:102D4800EBFD1D2005B05DF804EB01F01BBE03F59B
:102D580004331C209A6D42F001029A659B6D002293
:102D680003F0010302931146029B01F0D5FD1C20DC
:102D780005B05DF804EB01F005BE00BF002C014072
:102D8800000400400010024010B50168164A88B0DF
:102D980000239142CDE90333CDE90533079301D0F0
:102DA80008B010BD03F1804303F504330F489A6D52
:102DB80042F004029A659A6D02F004020192019AA7
:102DC800DA6C42F00202DA64DB6C03F0020302936D
:102DD800C022022303A9029C0793CDE9032302F032
:102DE800D1F808B010BD00BF00080040000400483A
:102DF80030B50168284A89B000239142CDE90333F0
:102E0800CDE90533079301D009B030BD03F1804304
:102E180003F504330224DA6C204842F00402DA6431
:102E2800DA6C02F004020092009ADA6C42F00202B4
:102E3800DA64DA6C02F002020192019ADA6C42F06A
:102E48000102DA64DB6C03F00103029304254FF4FA
:102E5800005303A9029A0795CDE90334CDE9054447
:102E680002F090F84FF4004303A90D480393CDE90D
:102E78000444CDE9064502F085F84FF4B85206231C
:102E880003A94FF09040CDE90444069403920793B8
:102E980002F078F809B030BD002C01400008004865
:102EA8000004004830B50168164A89B000239142F1
:102EB800CDE90333CDE90533079301D009B030BD1F
:102EC80003F1804303F504330F489A6D42F400324E
:102ED8009A659A6D02F400320192019ADA6C42F016
:102EE8000202DA64DB6C03F0020302930222072376
:102EF80003A91824029D0793CDE9034202F042F882
:102F080009B030BD0044004000040048014801F009
:102F18006FBF00BF10090020014801F069BF00BF62
:102F280010090020014803F035BD00BFE409002066
:102F3800014803F02FBD00BFCC0700204FF0A0438D
:102F480040221A60FEF7EABC034B04486FF0010206
:102F58001A6105F057BD00BF002C0140280300206E
:102F680008B50C4B1A6911060DD40A4B1A69D2051B
:102F780005D56FF480721A61074805F08FFDBDE82A
:102F88000840FEF7A7BC6FF080021A61024805F0FE
:102F9800A5FDEAE7002C0140280300200648036A43
:102FA800DA68D10702D51A69D20700D470476FF0E2
:102FB80001021A6104F006BC7402002010B5194C15
:102FC800D4F82031DA69910617D4DA6912060ED4DA
:102FD800DB691B0700D410BD124806F0B9FCD4F811
:102FE800203108221A62BDE8104000F0E7B80D4809
:102FF80006F078FBD4F82031EAE7596A2046C9B2CE
:1030080006F044FC0388012B07D0022B02D0D4F829
:103018002031DAE700F0D2F8F9E700F0D5F8D4F873
:103028002031D2E70000002070B5FEF765FD1A4C8C
:1030380008262546D4F82031DA6912071DD4DA6942
:1030480010060FD4DA699206F6D5596A2846C9B22D
:1030580006F01CFC0388012B1AD0022BEAD100F0E1
:10306800ADF8E7E7284606F03DFBD4F82031DA69E9
:103078009106EAD4DA691207E1D5284606F068FC19
:10308800D4F820311E6200F099F8D4F82031D6E740
:1030980000F09AF8CEE700BF0000002010B50A4CF7
:1030A8002378022B09D00133DBB22370FEF714FD1D
:1030B8000648BDE8104006F00FBB00F0CFFC01F059
:1030C8008BFC0123F1E700BF14060020D803002081
:1030D800044B5A69520500D470474FF480625A6114
:1030E80000F078B800040140054B5A69D20500D4B5
:1030F80070474FF480725A61024806F0B5BA00BFB3
:1031080000040140D80300202DE9F04F164DDFF8E8
:1031180070C0164E82460F46904699460FCD6446BB
:103128000FC495E8030083B0114DDDF830B0C5F841
:1031380000C084E80300304606F0D2FA0D4B286838
:103148000D4A00933146CDF804B00C4BFFF7D2F886
:103158002868CDF830A04B464246394603B0BDE852
:10316800F04F00F043B800BF4406002000000020E4
:103178007006002075990008719700084D9700089F
:103188000C0C00200B4B9A8892B21AB19A88013A1B
:1031980092B29A80DA88012A03D9DA88013A92B27F
:1031A800DA80054A1388012B03D91388013B9BB2A7
:1031B800138070477006002016060020014B00227D
:1031C800DA80704770060020014B4F22DA80704782
:1031D8007006002008B5FDF7EBFE18B1BDE8084001
:1031E800FDF7D4BEBDE80840FDF7CABE30B4029C66
:1031F8000461002505750171C0E9022330BC7047E0
:1032080003798B4286BF017501200020704700BFFB
:10321800007D704730B5D0E90254037D85B055F87C
:10322800235054F82330882900F2CC80DFE801F0DD
:103238004DCACA51CA585E646A787E848A989EA428
:10324800CACACACACACACACACACACACACACACACAD6
:10325800CACACACACACACACACACACACACACACACAC6
:10326800CACACACACACACACACACACACACACACACAB6
:10327800CAAACACACACACACACACACACACACACACAC6
:10328800CACACACACACACACACACACAB0CACACACAB0
:10329800CACACACACACACACACACACACACACACACA86
:1032A800CACACACACACACACACACACACACACACACA76
:1032B800CACACACACACABCC345009B6C11B2D86E76
:1032C80004F056FB012005B030BDD1B2FFF798FFDE
:1032D800F9E712F0FF0477D0012C7FD00120F2E744
:1032E800186811B204F032FB0120ECE7186811B23B
:1032F80004F02EFB0120E6E7186811B204F038FB51
:103308000120E0E728460192FDF74AFF019A039061
:10331800ADF80C2028460399FDF774FE0120D2E78A
:10332800586811B204F012FB0120CCE7586811B2BA
:1033380004F00EFB0120C6E7586811B204F018FB30
:103348000120C0E728460192FDF72AFF019A039061
:10335800ADF80E2028460399FDF754FE0120B2E788
:10336800986811B204F0F2FA0120ACE7986811B23B
:1033780004F0EEFA0120A6E7986811B204F0F8FA12
:103388000120A0E7284611B2FDF72AFF01209AE79D
:10339800174981FB0231A1EBE271284609B20022EC
:1033A800FDF71CFE01208EE79B6C11B2D86E04F06D
:1033B800CDFA012087E79B6C11B2D86E04F0C8FAE9
:1033C800012080E700207EE72846FDF705FF22461A
:1033D80001462846FDF70AFE012074E72846FDF756
:1033E800C3FE002201462846FDF7F8FD20466AE79D
:1033F800ABAAAA2A70B5D0E90245037D8CB055F86E
:10340800235054F82360002A00F09080012414709F
:10341800882900F21F82DFE811F0180212020E025A
:103428000A020302FF01FB01F7011F01EE01EA0195
:10343800A1011701C001BC01B8011D021D021D0236
:103448001D021D021D021D021D021D02B401B00154
:10345800AC011D021D02A501DA01D5011D02CE0134
:10346800C9012C0127013101DA01D5011F0117011A
:103478009C01970192018D0173015F011D021D02DC
:103488001D021D021D021D021D021D021D021D023C
:103498001D021D021D021D025801510117011D02C6
:1034A8001D021D021D021D021D021D021D021D021C
:1034B8001D021D021D021D021D021D021D021D020C
:1034C8001D021D021D021D021D021D021D021D02FC
:1034D8003E011D021D021D021D021D021D021D02CC
:1034E8001D021D021D021D021D021D021D021D02DC
:1034F8001D021D021D023A0136011B021D02240194
:1035080024011D021D021D021D021D021D021D02B5
:103518001D021D021D021D021D021D021D011D02AC
:10352800DF0187014B01C401F201E501882900F29E
:103538009180DFE811F08A01840180017C01750126
:1035480071016D016901910060015C01130189003D
:1035580032012E012A018F008F008F008F008F000B
:103568008F008F008F008F00260122011E018F001F
:103578008F0017014C0147018F0040013B019E005D
:103588009900A3004C014701910089000E0109012F
:103598000401FF00E500D1008F008F008F008F002D
:1035A8008F008F008F008F008F008F008F008F009B
:1035B8008F008F00CA00C30089008F008F008F0022
:1035C8008F008F008F008F008F008F008F008F007B
:1035D8008F008F008F008F008F008F008F008F006B
:1035E8008F008F008F008F008F008F00B0008F003A
:1035F8008F008F008F008F008F008F008F008F004B
:103608008F008F008F008F008F008F008F008F003A
:103618008F00AC00A8008D018F00960096008F00E7
:103628008F008F008F008F008F008F008F008F001A
:103638008F008F008F008F008F008F005101F900DD
:10364800BD003601640157013046FDF7A9FD00149D
:103658000CB070BD0020FBE73046FDF7A1FD00B2BD
:10366800F6E742F21F70F3E73046FDF789FD00B236
:10367800EEE73046FDF77CFD0014E9E73046FDF73C
:103688007FFD0014E4E7286804F070F9E0E7286893
:1036980004F06AF9DCE73046FDF750FD01283046B2
:1036A80000F0E580FDF760FD00EB40004000CFE74B
:1036B800A86C06F00DF810EE100AC9E7686A05F064
:1036C800DBFC00EB40004000C2E7686A05F0D2FC72
:1036D80000EB40004000BBE7026952F823301A0FA4
:1036E800013AC3F30363012A03F1FF3340F2BA80BE
:1036F800012BAFD8E8690028ACD005F0FBFBA7E7A1
:10370800026952F823301A0F013AC3F30363012AFE
:1037180003F1FF3340F2A180012B9BD8E869002810
:1037280098D005F0A9FB93E7A86C05F0CDFF10EE43
:10373800100A8DE73046FDF745FD001488E730464E
:10374800FDF740FD00B283E73046FDF731FD001478
:103758007EE73046FDF72CFD00B279E7686804F093
:1037680009F975E73046FDF7F7FC00EB400040002B
:103778006EE7E86B04F086F86AE7E86A04F0C8F8D0
:1037880066E7286B03F042FE62E7A86804F0F2F8E7
:103798005EE7A86804F0E2F85AE7A86804F0DAF8E7
:1037A80056E7AB6CD86E04F0D5F851E73046FDF714
:1037B800DFFC00B24CE7686900283FF44BAF06F025
:1037C80057F945E73046FDF7E3FC001440E730467B
:1037D800FDF7DEFC00B23BE7A86C05F063FF10EED6
:1037E800100A35E7AB6CD86E04F0C4F830E76868A7
:1037F80004F0B4F82CE7686804F0ACF828E7AB6C80
:10380800D86E04F0ABF823E7286804F0B3F81FE794
:10381800286804F0A3F81BE7286804F09BF817E76A
:103828003046FDF7A1FC00EB4000400010E73046B1
:10383800FDF784FC0CE7A86A05F0CAFC08E7A86A4B
:103848000CB0BDE8704005F0D1BCFFF7E1FCFFE625
:103858000A48FDE600201070FAE6012BA8693FF639
:103868005EAF5BE7012BA8693FF645AF42E7FDF77E
:1038780067FC00EB40004000EAE600BF7A84A6340B
:1038880010B58368027D013953F822400D292CD8E0
:10389800DFE801F01712070C0C0E1C26212B2B2B2E
:1038A8002B122046FDF746FC062820D0012010BD2B
:1038B8002046FDF73FFC20B12046FDF7F5FB01202F
:1038C80010BD2046FDF7E6FB012010BD2046FDF7A0
:1038D800EFFB012010BD2046FDF786FC012010BD3E
:1038E8002046FDF7E9FB012010BD002010BD204651
:1038F800FDF72EFC012010BD10B5074B047D806834
:1039080083FB01C3A3EBE17150F8240009B2FDF772
:1039180065FB012010BD00BFABAAAA2A10B58368B9
:10392800047D53F82400FDF761FB012010BD00BFA2
:1039380008B58368027D53F82200FDF771FB01206A
:1039480008BD00BFF8B5047DC06850F8240044697C
:1039580094B120461E4617460D4606F073F82946D0
:103968003880204606F074F829463080204606F054
:1039780077F8069B012418802046F8BDF8B51F4645
:10398800047DC368BDF9186053F824305C690D469E
:10399800204606F045F83A462946204606F046F8FD
:1039A80020463246294606F047F80120F8BD00BFF8
:1039B80082B08368ADF80410017DADF8062053F895
:1039C8002100019902B0FDF71DBB00BF0020704720
:1039D800054BD3F888204FF0006142F47002C3F819
:1039E80088209960704700BF00ED00E070B50F4E69
:1039F80033680BB9012070BD0D494FF47A72054642
:103A0800B2FBF3F30868B0FBF3F000F0C9FF04461B
:103A18000028EFD10F2DEDD8024629464FF0FF3090
:103A280000F07AFF7560204670BD00BF1C060020BC
:103A38001806002000B5032083B000F05BFF0420C7
:103A4800FFF7D4FF18B1012003B05DF804FB019023
:103A5800FEF77EFF019803B05DF804FB034A0449B2
:103A6800136809680B441360704700BFBC0C002042
:103A78001C060020014B1868704700BFBC0C0020D2
:103A880070B582B000230193002800F0A180C56DB5
:103A98000446002D00F09180226893689D0005D5AA
:103AA800936823F0204323F03F0393609368D80082
:103AB80017D4754B91681B6874489B0921F0104115
:103AC800A0FB030321F03F019B0941F08051916065
:103AD8000193019B2BB1019B013B0193019B002B9F
:103AE800F9D19368D9005AD4E36D43F01003E36524
:103AF800236E43F001032366936813F0040F4FF01D
:103B08000100E36D52D1DB0650D4E36D23F48173D9
:103B180043F00203E3659368DE0709D44FF0A0433E
:103B28005B499B688968CD0703F0010340F18380F6
:103B3800D4E90215E36B2B430B43657F94F82410FB
:103B480043EA4533012943EA014303D1A16A013914
:103B580043EA4143E16A21B1256B01F478712943B5
:103B68000B43D6684B49656B31400B43D3601369EF
:103B780023F040632B431361936859072BD593684F
:103B88006369012B4FD0136B23F00F031363E36DAD
:103B980023F0030343F00103E36502B070BD9368AB
:103BA80013F0040F4FF00000E36DACD0E36D01207B
:103BB80043F01003E36502B070BDFEF7E9FE22682A
:103BC8002566936884F858509D007FF56FAF67E7C6
:103BD800012002B070BD93681B07D1D4D16894F856
:103BE8003830267F256921F480415B0021F00201ED
:103BF80043EA86330B43D36013693DB343F4803300
:103C08001361D2F8C03023F47F5323F03F032B43D2
:103C1800C2F8C03094F84030012B23D0136923F048
:103C280001031361ACE7116B236A21F00F01013B1B
:103C38000B431363ABE7002B7FF47AAF1649656833
:103C48008B6823F47C132B438B6071E723F4803358
:103C58001361D2F8C03023F47F5323F03F03C2F836
:103C6800C030D7E7D4E91131E66C256D0B431169F3
:103C780043F00103334321F4FF612B4321F0040196
:103C88000B4313617CE700BF18060020632D3E0537
:103C9800000100500740F0FF000300502DE9F041FB
:103CA800034682B093F858200020012A019000F0C2
:103CB80011811A6894680120650783F858004FD469
:103CC800D1E90004A60906F00C0602F1300504F05B
:103CD8001F0477594FF01F0C0CFA04FCC0F38460E2
:103CE800A04027EA0C07384370519068440749D52B
:103CF80090680C689068C00713D4CE68C648D2F89C
:103D0800B050DFF83CC306F01807F840C4F31207B8
:103D1800204025EA070528436645C2F8B00000F0B0
:103D28008B80BE490C422BD0BD4DBE49A8688C4241
:103D380000F0E0761ED0BC498C421BD0BB498C42B7
:103D480040F0CC8010F080701AD1B9498A4217D05F
:103D5800AA6822F0E072164346F08076AE6003E06F
:103D6800DA6D42F02002DA65002283F8582002B0AA
:103D7800BDE8F081010203D4B2F1A04F00F0D38076
:103D88000020F1E795680C6815F00805B2D18E6837
:103D9800C4F3045E0720E40D00FA0EF0B6F1004FFC
:103DA80004F004046FEA000002F1140C00F0D9805A
:103DB80054F80C7006FA0EF63840064344F80C60C6
:103DC800506920F000405061D1F810C0D7680C68E5
:103DD800BCF1040F02F1600000F0CD804E6950F88C
:103DE8002C80DFF860E2C7F3C1077F0004F0F844D5
:103DF80044F00044BE40264308EA0E0E46EA0E068A
:103E080040F82C600F698E6950F8274091F81CC063
:103E180024F08074344340F827400E6950F8264057
:103E2800BCF1010F24F0007408BF4FF00075254362
:103E380040F826500C685DE7002F63D094FAA4F090
:103E4800002800F02181B0FA80F0013000F01F0056
:103E5800092840F2198194FAA4F0002800F03F8163
:103E6800B0FA80F00130800600F0F84094FAA4F52A
:103E7800002D00F03981B5FA85F5013505F01F05EB
:103E8800012606FA05F5284394FAA4F4002C00F05C
:103E98002981B4FA84F4013404F01F0404EB4404C7
:103EA8001E3C240544F000742043C70D07F00407A6
:103EB80002F11405C0F304507C598E684FF0070CCA
:103EC8000CFA00FC24EA0C0406FA00F020437851AE
:103ED8000C6826E7022002B0BDE8F08155498C4203
:103EE8007FF44EAF10F480007FF44AAF50498A4205
:103EF8003FF446AFAA6822F0E072324342F48002EF
:103F0800AA6031E7A40E013404F01F05A0060124BD
:103F1800AC4000F0F840092D40EA040005EB4504E8
:103F2800BED82405C0E73E48434A8168434C21F087
:103F3800E0710E4346F40006866012689209A4FBFD
:103F48000212920902EB420292000192019A002A9F
:103F58003FF416AF019A013A0192019A002AF9D169
:103F68000EE754F80C60304044F80C00506940F0FB
:103F78000040506128E7156E156EC4F31207C5F3AB
:103F88008465002F41D1C4F38466B54206D1146E0E
:103F980024F0004414660C68C4F3120745684668A8
:103FA800C6F38466002F4FD1C4F38465AE4240F057
:103FB8009D80446824F0004444600C6885688668E5
:103FC800C4F31205C6F38466002D48D1C4F3846592
:103FD800AE4200F10C0740F08E80846824F0004463
:103FE80084600C6838683868C4F31205C0F38460CC
:103FF800002D41D1C4F3846585427FF47BAE3868D7
:1040080020F0004038600C6874E694FAA4F6002E9C
:10401800C4D0B6FA86F6B8E7FFFF070000000880AC
:1040280000030050000021C31000C090000052C7D8
:1040380000010050000084CB18060020632D3E05C7
:1040480000007F4000F0FF0394FAA4F51DB1B5FA13
:1040580085F5AE42ADD085688668C6F3846694FA65
:10406800A4F58DB3B5FA85F5AE4200F10C07B4D0CE
:1040780038683868C0F3846094FAA4F5002D3FF4DA
:1040880039AEB5FA85F5B7E794FAA4F020B3B0FADB
:1040980080F00130800600F0F84094FAA4F5CDB124
:1040A800B5FA85F5013505F01F05012606FA05F56F
:1040B800284394FAA4F454B1B4FA84F4013404F013
:1040C8001F0404EB44042CE700F10C07D0E74FF47D
:1040D8004014E9E60225EBE74FF08060DDE74FF09A
:1040E8008060C3E6064CDFE60225CCE68668866873
:1040F800C6F384666CE7C668C068C0F384607BE773
:10410800000050FE2DE9F04390F8583083B00022AB
:10411800012B019200F05E8143690122044680F878
:104128005820002B72D00B6A93426FD0806E002803
:1041380040F02981886A013B002800F03E8200F0A7
:104148007C00CA6A18431043D1E90025A36605F02C
:104158001F05C2F38463AB40184323686066986800
:10416800000710D491F8260091F825504005002D3D
:1041780040F0FE80DD6891F8246025F4401540EA9F
:1041880006502843D860986810F0040057D0986803
:1041980000209D68EF0714D4CF68C74DD3F8B060EE
:1041A800DFF840E307F0180C25FA0CF5C2F3120CFF
:1041B800154026EA0C0635437745C3F8B05000F0A1
:1041C8000D81BE490A421BD0BD4DBE4EA968B24200
:1041D80001F0E07700F0A780BB4EB24200F0A38068
:1041E800BA4EB24240F05581CE0109D4B84A934242
:1041F80006D0AB6823F0E0731F4347F08077AF60C9
:10420800002384F8583003B0BDE8F083D1E90020DA
:1042180009282368A3D1886A550C05F4785520B17C
:10422800CE6A00F07C0030430543D86CA94E30407C
:104238002843D864986865660007A4D492E79D6807
:1042480015F00805A5D18E6A91F82500002E40F0DA
:10425800B4800128D8680CBF40F0007020F00070CE
:10426800D860002091F83060012E00F047811E6967
:1042780026F002061E61C2F304588F68D20D072685
:1042880002F0040E03F1140C06FA08F6B7F1004F19
:104298006FEA06065EF80C2000F02881164007FA3F
:1042A80008F737434EF80C705A6922F000425A61F9
:1042B800D1F810E0DF680A68BEF1040F03F1600668
:1042C80000F02881C7F3C10C4F6956F82E90DFF82B
:1042D80018824FEA4C0C02F0F84242F0004207FA0A
:1042E8000CF7174309EA080847EA080746F82E704A
:1042F800D1F810C08F6956F82C2091F81CE022F0F4
:1043080080723A4346F82C200F6956F82720BEF1F0
:10431800010F22F0007208BF4FF00075154346F8F0
:1043280027500A6835E70A023FF56AAFB3F1A04F94
:104338007FF466AF624A6849936823F0E0731F43CD
:1043480047F4000797600B68644A9B09A2FB0323A4
:104358009B0903EB43039B000193019B002B3FF454
:104368004FAF019B013B0193019B002BF9D147E71C
:10437800DD6825F440152843D860986810F00400DB
:104388007FF405AF5BE7D1E90026636EC2F384656D
:1043980006F01F06B5401D430138C4E919502368CB
:1043A80000287FF4DCAED86C4A4E30400543DD640B
:1043B800986800073FF5E7AED4E6CE6A002E3FF4D2
:1043C80048AF012800F02881D86820F00070D86034
:1043D800284647E7022003B0BDE8F083BCF1000F90
:1043E8002BD1920E013202F01F060125920602F02F
:1043F800F842B540092E45EA020506EB460246D9C1
:104408001E3A120542F000722A434FEAD25C0CF0C1
:10441800040C03F11407C2F304525CF807508E68C9
:104428004FF0070E0EFA02FE25EA0E0506FA02F212
:104438002A434CF807200A68C3E692FAA2F5002D31
:1044480040F0BD8092FAA2F5002D00F01381B5FA74
:1044580085F50135AD0605F0F84592FAA2F6002E6D
:1044680000F00681B6FA86F6013606F01F06012727
:1044780007FA06F6354392FAA2F2002A00F0F58010
:10448800B2FA82F2013202F01F0202EB4202120576
:10449800BAE7134EB2427FF4B3AE49023FF5B0AE6D
:1044A8000B4A93423FF4ACAEAB6823F0E0731F4372
:1044B80047F48007AF60A3E6FFFF0700000008800D
:1044C80000030050000021C31000C090000052C734
:1044D800000100500040100418060020632D3E051E
:1044E800000084CB00007F4000F0FF0316404EF828
:1044F8000C605A6942F000425A61D9E68F6B4E6BE4
:10450800D3F810C03E4346F002062CF4FF773E4332
:104518001E61B0E61D6E1D6EC2F3120CC5F38465F4
:10452800BCF1000F75D092FAA2F757B1B7FA87F726
:10453800BD4206D11A6E22F000421A660A68C2F31A
:10454800120C75687768C7F38467BCF1000F68D1EF
:10455800C2F38465AF4240F09D80726822F0004249
:1045680072600A68B568B768C2F31205C7F3846752
:10457800002D61D1C2F38465AF4206F10C0C40F006
:104588008480B26822F00042B2600A68DCF8005009
:10459800DCF80060C2F31205C6F38466002D5AD118
:1045A800C2F38465B5427FF4F4ADDCF8002022F054
:1045B8000042CCF800200A68EBE51846C4E5B5FAD5
:1045C80085F5013505F01F05092D7FF63BAF92FAF9
:1045D800A2F5002D53D0B5FA85F50135AD0605F0E5
:1045E800F84592FAA2F6002E47D0B6FA86F60136BA
:1045F80006F01F06012707FA06F6354392FAA2F2DB
:104608008AB3B2FA82F2013202F01F0202EB4202CE
:10461800F6E6C2F384678BE7E66D46F02006E665AA
:1046280020E692FAA2F51DB1B5FA85F5AF4294D00D
:10463800B568B768C7F3846792FAA2F515B3B5FAF7
:1046480085F5AF4206F10C0C9BD0DCF80050DCF885
:104658000060C6F3846692FAA2F5002D3FF499AD86
:10466800B5FA85F59EE70E4ACEE64FF44012CBE642
:104678000226FFE64FF08065EFE60226BDE74FF021
:104688008065AEE706F10C0CDFE7F768F668C6F35D
:10469800846687E7B768B768C7F384676CE700BFC5
:1046A800000050FE90F85820012A47D0F0B5046861
:1046B8000E680346B4F1A04F4FF0010083F858008C
:1046C80007D0DA6D002142F02002DA6583F858102D
:1046D800F0BD274DAA68520709D5A268DA6D42F0E5
:1046E8002002DA650120002283F85820F0BDA06876
:1046F80010F00400F2D11EB3DFF878E04F68DEF85E
:10470800082093F838C022F460423A4342EA4C3217
:10471800CEF80820A268D40727D4A86810F00100B2
:1047280021D1DEF808208C6822F4716121F00F0194
:1047380046EA04020A43CEF80820D4E7022070476C
:104748000C4A916821F460419160A068A968C90782
:1047580000F0010007D430B9916821F4716121F0AB
:104768000F019160BFE70020BDE7AA68BBE700BF63
:104778000001005000030050F0B583B000230193FE
:10478800002854D002681368002B04464FDB437F8F
:1047980003F0FF01002B7ED0D4E90163D4E9035074
:1047A8006169176833430B43166840492B43034339
:1047B80031400B4313601368180201D53B024ED5F4
:1047C8003B4B9A4262D004339A426AD004339A42ED
:1047D80015BF6FF080426FF000524FF080414FF0EC
:1047E8000051A3699F0725D0324DA868DE064CBF4B
:1047F80008431040A8602F4DE8689F064CBF084347
:104808001040E8602B48416145689E074CBF0D4346
:104818001540DB0745601DD5264B1A681143196002
:10482800637F03F0FF008BB1002003B0F0BD0120CF
:1048380003B0F0BD1F4B59681140596019680A4010
:104848001A60637F03F0FF00002BEDD1012363772B
:1048580003B0F0BD17490B681A400A60F1E7164B20
:1048680016491B689B09A1FB03139B0903EB8303F0
:104878009B000193019B002BA2D0019B013B01935C
:10488800019B002BF9D10A4B9A429CD16FF400127C
:104898004FF40011A5E701770162FEF7F1F82268ED
:1048A8007AE76FF480024FF480019AE70F7E00FFE9
:1048B800000201400004014018060020632D3E0557
:1048C800B0B190F8213010B503F0FF02044653B19F
:1048D800002001236062C4E90100C4E903006061AB
:1048E80084F8213010BD80F82020FEF72DF9EFE77D
:1048F80001207047074AD3684FF6FF010B400002BA
:1049080043F0BF6300F4E06043F400330343D36033
:10491800704700BF00ED00E0184BDB68C3F30223CB
:1049280030B4C3F10705042D03F1040428BF04259E
:10493800062C19D9033B4FF0FF349C4022EA0404AB
:104948004FF0FF32AA4021EA020101FA03F22243A2
:1049580012010028D2B20ADB00F1604000F5614084
:1049680080F8002330BC704700242346E8E7044B56
:1049780000F00F0003441A7630BC704700ED00E0E9
:10498800FCEC00E0002807DB044A00F01F010123CB
:1049980040098B4042F82030704700BF00E100E03A
:1049A8000138B0F1807F0ED2084B10B4084C586023
:1049B800F02084F823000022072110469A6019602D
:1049C8005DF8044B70470120704700BF10E000E01D
:1049D80000ED00E0704700BF08B5FFF7FBFF08BD1A
:1049E800002800F0D28038B590F85C30044603F017
:1049F800FF02002B00F0C4802268936923F01003A3
:104A08009361FFF737F8054605E0FFF733F8401BD9
:104A18000A2800F2AC8023689A691107F5D49A69CC
:104A280042F001029A61FFF725F8054605E0FFF715
:104A380021F8401B0A2800F29A8023689A69D20755
:104A4800F5D59A69584942F002028B429A6100F002
:104A5800A380227C012A9A690CBF22F0400242F00E
:104A680040029A61627C012A9A690CBF42F4804232
:104A780022F480429A61A27C012A9A690CBF22F42E
:104A8800805242F480529A619A69D4E9025122F420
:104A980040722A439A619A6922F0A4029A611A69BB
:104AA800012922F010021A6171D079B102299A699C
:104AB80076D042F080029A611A69032942F0100206
:104AC8001A6103D19A6942F020029A61D4E9061268
:104AD800013A206A0139120242EA416261690138E9
:104AE8000243013942EA0142B5F5407FDA610ED14D
:104AF800D4E90B52D4E90910013A1201013D42EA06
:104B0800052201380243013942EA0142DA60D3F84A
:104B1800C020E56B616B25482A43C3F8C020D3F851
:104B28008020206422F4F81242EA0142C3F880206F
:104B3800D3F88020A16B1E4D656422F0706242EAB2
:104B48000162C3F880201B491B4B1C4A4035C4E94D
:104B58001423C4E912514FF45472002104F0B0FF39
:104B6800002001232066A06584F85C3038BD236EE0
:104B7800032243F001032366012084F85C2038BD3A
:104B880080F85D20FDF7F8FF36E7012070479A6945
:104B980042F004029A6199E7094A6168116058E78E
:104BA80042F020029A6191E70064004000A40040AE
:104BB80070A4004088A5004078A6004060A6004088
:104BC8000065004090F85C20012A034605D0026E7B
:104BD80042F004020266012070470068022283F84E
:104BE8005C208269002122F0010282610846196670
:104BF800704700BFF0B590F85C40022C05D0036EFA
:104C080043F0080303660120F0BD4029D0F800E016
:104C180053D0DEF89840240749D0DEF89850C46C89
:104C2800C5F3012C0CEBCC0504EBC504256805F095
:104C380080455560002D4ED12568C5F38A4515601D
:104C48002568274F05F000559560256805F0004553
:104C58001561A588D561656805F47025D560666815
:104C680006F480165661666806F400169661E679C1
:104C780006F07F062D0C166266687D5DF60F56629B
:104C88006DB10734013B002514F8016F03F8016F7B
:104C9800D689BE5D0135AE42F6D8D0F800E040298D
:104CA8000CBFCEF894C0CEF89CC00020F0BD036EB7
:104CB80043F4807303660120F0BDDEF890402507B9
:104CC800F5D0DEF89050846CC5F3012C0CEBCC05C4
:104CD80004EBC504AAE7256825F06045AFE700BFE7
:104CE800589C000890F85C30013B012B05D9036EF5
:104CF80043F00203036601207047036830B411F0E3
:104D08000705986D2FD0C4072DD4DC6D44F001043D
:104D1800DC650DB1C5070ED411F0380F01D084073A
:104D280009D411F4E07F01D0450704D411F4F05FF1
:104D380039D0040737D5D86D40F00200D8650C0685
:104D480004D5D3F8DC001043C3F8DC00C80504D54B
:104D5800D3F8E0000243C3F8E0205A6D1143002065
:104D6800596530BC704711F0380F01D08407CCD595
:104D780011F4E07F14D111F4F05F01D00407C4D519
:104D880011F4604F01D0C406BFD511F4403F01D0E3
:104D98008406BAD511F47C0FBBD04406B9D4B4E765
:104DA8004407B2D5E7E711F4604F01D0C506C2D475
:104DB80011F4403F01D08406BDD411F47C0FBED05D
:104DC8004506BCD5B7E700BF704700BF704700BFB6
:104DD800704700BF704700BF704700BF704700BFF3
:104DE800704700BF704700BF704700BF704700BFE3
:104DF8002DE9F8430368D3F85090D3F854E0D3F87A
:104E08005080596D1F6D5A6D1D6DD3F854C01E6DBD
:104E180008EA01081740596D1A6D09EA0E0905EAF2
:104E28000C050E405206044609F4E05908F007083C
:104E380007F0380705F4710506F4602603D55A6DA6
:104E4800510600F187801A6DD20503D55A6DD00539
:104E580000F18680B9F1000F4DD1B8F1000F3AD1B9
:104E6800002F41D11A6D910502D55A6D920555D47E
:104E78001A6D170602D55A6D100657D41A6D91048B
:104E880002D55A6D92045DD41A6D170402D55A6D75
:104E980010043BD41A6D510409D55A6D520406D535
:104EA8004FF480421A65226E42F08002226666B98B
:104EB80025B123681D65236E1D432566236E13B136
:104EC8002046FFF791FFBDE8F8831E65314620466E
:104ED800FFF78CFFECE7C3F8508041462046FBF70C
:104EE800C5FF2368002FBDD01F6539462046FFF750
:104EF8006DFF2368B6E7C3F8509049462046FFF790
:104F080063FF2368B8F1000FAAD0E4E74FF400422A
:104F18001A652046FFF764FF2368BBE74FF4007269
:104F28001A652046FFF754FF2368A1E7D3F8D40099
:104F3800D3F8DC10802201401A652046FFF74AFFAB
:104F480023689BE74FF400521A652046FFF746FF97
:104F5800236899E740221A65FFF744FF236872E740
:104F6800D3F8D800D3F8E0104FF4807201401A65E6
:104F78002046FFF731FF2368B9F1000F3FF46DAF0A
:104F8800B9E700BF2DE9F04FD1F800E083B0BEF1DA
:104F9800000F00F08180DFF8A091884600260123E9
:104FA80003FA06F212EA0E0772D0D8E9011421F0CA
:104FB800100B06FA03FC0BF1FF35032303FA0CFA76
:104FC800012D6FEA0A0A04FA0CF468D9C3680AEAE0
:104FD80003031C43C460026801F0030302EA0A0ADF
:104FE80003FA0CF343EA0A03CD00036050D54C4A98
:104FF800136E43F001031366136E26F0030404F1E5
:10500800804403F0010304F58034019306F00303A0
:10501800019AA5689B000F229A40B0F1904F25EAAB
:10502800020213D03F4DA8426BD03F4DA84263D037
:105038003E4DA8426AD03E4DA8426CD03D4DA84294
:105048000CBF0525062505FA03F31A43A260D9F813
:105058000030FA43CC0354BF13403B43C9F8003037
:10506800D9F804308D0354BF13403B43C9F80430CA
:10507800D9F80830CC0254BF13403B43C9F8083074
:10508800D9F80C30890254BF13403B43C9F80C309F
:1050980001363EFA06F382D103B0BDE8F08F83688B
:1050A800D8F80C5003EA0A0305FA0CF51D4385608D
:1050B8004368C1F3001523EA02032A46B2401A43A3
:1050C8004260C36803EA0A031C43BBF1020FC460D1
:1050D80081D1F40800EB840406F00703256AD8F8A8
:1050E80010209B004FF00F0B0BFA03FB25EA0B0572
:1050F8009A402A4322626EE7022505FA03F31A430F
:10510800A4E7012505FA03F31A439FE7032505FAE7
:1051180003F31A439AE7042505FA03F31A4395E7BC
:10512800001002400004004800080048000C004835
:105138000010004800140048000401400AB98162C8
:1051480070478161704700BF436901EA030221EAA1
:10515800030141EA02418161704700BF00285CD029
:1051680090F83A30052B58D090F83A30022B54D0AA
:105178003A4B70B51A6E42F001021A661B6E82B085
:1051880003F001030193019B90F83A3003F0FF020A
:10519800002B44D00446FDF747FDA36823F0200206
:1051A800402A226841D06068E6681168256903438F
:1051B8003343E06A666A2B4321F010010143A56A74
:1051C80011603343D4E90C602B432549156843EA41
:1051D800C64343EA0063207D2940012843EA0103CE
:1051E80014BF00214FF480710B4313609369002BA7
:1051F80009DBD4E90635206A91692B43034321F082
:105208003F010B43936194F83A3003F0FF004BB928
:10521800012384F83A3002B070BD0120704780F84D
:105228003920B7E7002002B070BD666811682069B0
:10523800E56A3343034321F01001606A2943A56AF4
:1052480011600343206B166805492B43656B43EADD
:10525800C0433140207D43EA0563BEE700100240A9
:10526800113E00E03B4A10B4136868B903F4C06308
:10527800B3F5806F14D0D2F880305DF8044B23F476
:105288008073C2F880307047B0F5007F2FD023F4C8
:10529800C06343F48063136000205DF8044B7047DB
:1052A800D2F880102C4B2D4821F48071C2F8801060
:1052B800116821F4C06141F4007111601C685169E2
:1052C800322303FB04F3A0FB03039B0C480503F103
:1052D800010306D500E023B15169490503F1FF3305
:1052E800F9D41C4B5B695C05D6D50320D5E703F4DC
:1052F800C063B3F5806F09D0D2F880305DF8044BF5
:1053080043F480730020C2F880307047D2F88010D0
:10531800114B124841F48071C2F88010116821F4D1
:10532800C06141F4007111601C685169322303FBAC
:1053380004F3A0FB03039B0C480503F10103D0D53C
:1053480001E0002BCDD05169490503F1FF33C8D5E1
:10535800F7E700BF007000401806002083DE1B43FB
:10536800024A936843F4804393607047007000409A
:10537800002800F06C812DE9F0410368D90782B05C
:1053880004462DD5B7498A68C96802F00C020C2A70
:1053980000F0F580082A00F0F7806368B3F5803FD5
:1053A80000F02E81B3F5A02F00F0E081AD4D2A6802
:1053B80022F480322A602A6822F480222A60002B94
:1053C80040F02381FEF756FB064605E0FEF752FB48
:1053D800801B642800F237812B689F03F6D423686A
:1053E8009E0700F1A5801A0719D563699D4D002B0A
:1053F80000F0D780D5F8943043F00103C5F8943015
:10540800FEF738FB064605E0FEF734FB801B022852
:1054180000F21981D5F894309F07F5D5236859070C
:105428003FD5904B9A6DD20000F12B819A6D42F0D6
:1054380080529A659B6D03F080530193019B01266E
:10544800894D2A68D70540F1EE80A368012B00F04A
:105458001A81052B00F0CB81824DD5F8902022F0DF
:105468000102C5F89020D5F8902022F00402C5F872
:105478009020002B40F00E81FEF7FCFA41F28837AD
:10548800804606E0FEF7F6FAA0EB0800B84200F204
:10549800DA80D5F890309A07F4D4002E40F02381B2
:1054A80023689B0618D5A3696E4D002B00F0078171
:1054B800D5F8983043F00103C5F89830FEF7DAFACA
:1054C800064605E0FEF7D6FA801B022800F2BB80EC
:1054D800D5F898309F07F5D5E06928B3614DAA68DB
:1054E80002F00C020C2A00F04E812A68022822F0F1
:1054F80080722A6000F0FD80EA6822F00302EA6008
:10550800EA6822F0887222F48032EA60FEF7B2FA82
:105518002C46054605E0FEF7ADFA401B022800F2CE
:10552800928023689B01F6D4002002B0BDE8F08188
:105538004C4A9368D26803F00C030C2B45D0042B1B
:1055480047D0E368474D002B00F083802B6843F475
:1055580080732B60FEF78EFA064604E0FEF78AFA9F
:10556800801B02286FD82B685805F7D56B6822690D
:1055780023F0FE4343EA02636B60236833E701F0DC
:10558800030103297FF409AF364A126892037FF5B5
:1055980027AF6268002A7FF423AF012002B0BDE87C
:1055A800F081D5F8943023F00103C5F89430FEF764
:1055B80061FA064604E0FEF75DFA801B022842D82D
:1055C800D5F894309807F6D428E702F00302022AA7
:1055D800B7D1244B1B685D0502D5E368002BDCD0EE
:1055E800204A20695368214923F0FE4343EA0063B7
:1055F80053600868FEF7FAF90028CED12368F2E66E
:10560800184A136843F480331360FEF733FA154DD4
:10561800064604E0FEF72EFA801B642813D82B6890
:105628009B03F7D5DBE62A6842F480722A60FEF70E
:1056380021FA07462B68D8053FF507AFFEF71AFA97
:10564800C01B0228F6D9032002B0BDE8F081012072
:1056580070472B6823F480732B60FEF70BFA06461D
:105668000BE000BF00100240007000402006002040
:10567800FEF700FA801B0228E5D82B685905F7D4F5
:10568800BCE70026DCE6614AD2F8903043F001031B
:10569800C2F89030FEF7EEF95C4D804641F288374B
:1056A80005E0FEF7E7F9A0EB0800B842CBD8D5F83B
:1056B80090309907F5D5002E3FF4F2AE13E0D5F8F7
:1056C800983023F00103C5F89830FEF7D3F9064661
:1056D80004E0FEF7CFF9801B0228B4D8D5F898303B
:1056E8009807F6D4F8E6494A936D23F080539365FA
:1056F800D6E6FEF7BFF9064604E0FEF7BBF9801BC5
:105708000228A0D82B689901F7D4E968404B226A8F
:10571800A76AE66A606A0B401343D4E90C1243EAAD
:105728000723013843EAC663490843EA00130139ED
:10573800520843EA4153013A43EA4263EB602B685B
:10574800324C43F080732B60EB6843F08073EB605E
:10575800FEF790F9054605E0FEF78CF9401B022894
:105768003FF671AF23689A01F6D5DDE603F1804371
:10577800A3F53C331A6842F480221A601A6842F48E
:1057880080321A6041E701283FF408AFEB68226ACB
:1057980003F0030191427FF400AF616A03F0F00265
:1057A8000139B2EB011F7FF4F8AEA16A03F4FE429F
:1057B800B2EB012F7FF4F1AEE16A03F07842B2EB6D
:1057C800C16F7FF4EAAE226B5208013A03F4C001BC
:1057D800B1EB425F7FF4E1AE626B5208013A03F02D
:1057E800C063B3EB426F14BF01200020D6E6074B1D
:1057F800D3F8902042F00402C3F89020D3F8902008
:1058080042F00102C3F8902044E700BF00100240B4
:105818000C809F01002800F00581AD4A2DE9F8436E
:10582800136803F00F038B420CD2136823F00F03A5
:105838000B431360136803F00F038B4202D001205F
:10584800BDE8F8830368DF0704460D4640F1888009
:105858004268032A00F0AD809E4B022A1B6800F0C4
:10586800FF805B05EBD59B4B996801F00C0104297F
:105878000AD0996801F00C01082905D0996801F04F
:105888000C010C2900F0FB804FF00008914EB36822
:1058980023F003031A43B260FEF7ECF841F28837AD
:1058A800814605E0FEF7E6F8A0EB0900B84274D897
:1058B800B368626803F00C03B3EB820FF2D123687C
:1058C8009F0740F1D380580704D582498A6842F47B
:1058D800E0628A60190706D57E4A936823F47C53F0
:1058E80043F4E06393607B4AA168936823F0F00374
:1058F8000B439360764E326802F00F02AA4237D803
:1059080023685A0706D57349E0688A6822F4E0627A
:1059180002438A601B0743D46E4A936803F00C0362
:10592800042B00F0D380936803F00C03082B00F0DD
:105938009B80936803F00C030C2B75D00023654AF9
:10594800654C9268654866490068C2F30312A25C18
:1059580002F01F02D3400B60BDE8F843FEF746B8DB
:105968009E07B0D45A4E326802F00F02AA42C7D935
:10597800326822F00F022A433260FEF77BF841F2C8
:1059880088378046336803F00F03AB42B8D0FEF780
:1059980071F8A0EB0800B842F4D90320BDE8F883F9
:1059A8004C4A2169936823F4605343EAC103936026
:1059B800B2E74849086880017FF541AFCE68C868FA
:1059C800484F06F00306032ECE680CBF46494749E8
:1059D800C0F303100130B1FBF0F1C6F306203D4ED1
:1059E80001FB00F1F068C0F3416001304000B1FBF9
:1059F800F0F1B9427FF648AFB16811F0F00F07D067
:105A080013F002083FF442AFA368002B7FF43CAFC9
:105A180030498B6823F0F00343F080038B604FF02C
:105A2800800833E701207047D068D368D26800F057
:105A38000300C3F303130328C2F3062203F1010191
:105A48000CBF294B294BB3FBF1F303FB02F3214AAB
:105A5800D268C2F3416201325200B3FBF2F36EE73F
:105A680099033FF500AFEAE61F4B68E7B8F1000F6E
:105A78003FF440AFB36823F0F003B3603AE7D86867
:105A8800D968184E00F003000328D8680CBF164BDD
:105A9800164BC1F303110131B3FBF1F3C0F3062137
:105AA8000C4803FB01F3C168C1F3416101314900AE
:105AB800B3FBF1F3B3427FF6E7AE836823F0F0035C
:105AC80043F0800383604FF08008DFE6074B36E73A
